{
  "contractName": "StateswapExchange",
  "abi": [
    {
      "inputs": [
        {
          "internalType": "uint256",
          "name": "chainId",
          "type": "uint256"
        },
        {
          "internalType": "address[]",
          "name": "registryAddrs",
          "type": "address[]"
        },
        {
          "internalType": "bytes",
          "name": "customPersonalSignPrefix",
          "type": "bytes"
        }
      ],
      "stateMutability": "nonpayable",
      "type": "constructor"
    },
    {
      "anonymous": false,
      "inputs": [
        {
          "indexed": true,
          "internalType": "bytes32",
          "name": "hash",
          "type": "bytes32"
        },
        {
          "indexed": false,
          "internalType": "address",
          "name": "registry",
          "type": "address"
        },
        {
          "indexed": true,
          "internalType": "address",
          "name": "maker",
          "type": "address"
        },
        {
          "indexed": false,
          "internalType": "address",
          "name": "verifierTarget",
          "type": "address"
        },
        {
          "indexed": false,
          "internalType": "bytes4",
          "name": "verifierSelector",
          "type": "bytes4"
        },
        {
          "indexed": false,
          "internalType": "bytes",
          "name": "verifierExtradata",
          "type": "bytes"
        },
        {
          "indexed": false,
          "internalType": "uint256",
          "name": "maximumFill",
          "type": "uint256"
        },
        {
          "indexed": false,
          "internalType": "uint256",
          "name": "listingTime",
          "type": "uint256"
        },
        {
          "indexed": false,
          "internalType": "uint256",
          "name": "expirationTime",
          "type": "uint256"
        },
        {
          "indexed": false,
          "internalType": "uint256",
          "name": "salt",
          "type": "uint256"
        },
        {
          "indexed": false,
          "internalType": "bool",
          "name": "orderbookInclusionDesired",
          "type": "bool"
        }
      ],
      "name": "OrderApproved",
      "type": "event"
    },
    {
      "anonymous": false,
      "inputs": [
        {
          "indexed": true,
          "internalType": "bytes32",
          "name": "hash",
          "type": "bytes32"
        },
        {
          "indexed": true,
          "internalType": "address",
          "name": "maker",
          "type": "address"
        },
        {
          "indexed": false,
          "internalType": "uint256",
          "name": "newFill",
          "type": "uint256"
        }
      ],
      "name": "OrderFillChanged",
      "type": "event"
    },
    {
      "anonymous": false,
      "inputs": [
        {
          "indexed": false,
          "internalType": "bytes32",
          "name": "firstHash",
          "type": "bytes32"
        },
        {
          "indexed": false,
          "internalType": "bytes32",
          "name": "secondHash",
          "type": "bytes32"
        },
        {
          "indexed": true,
          "internalType": "address",
          "name": "firstMaker",
          "type": "address"
        },
        {
          "indexed": true,
          "internalType": "address",
          "name": "secondMaker",
          "type": "address"
        },
        {
          "indexed": false,
          "internalType": "uint256",
          "name": "newFirstFill",
          "type": "uint256"
        },
        {
          "indexed": false,
          "internalType": "uint256",
          "name": "newSecondFill",
          "type": "uint256"
        },
        {
          "indexed": true,
          "internalType": "bytes32",
          "name": "metadata",
          "type": "bytes32"
        }
      ],
      "name": "OrdersMatched",
      "type": "event"
    },
    {
      "inputs": [
        {
          "internalType": "bytes32",
          "name": "hash",
          "type": "bytes32"
        }
      ],
      "name": "approveOrderHash_",
      "outputs": [],
      "stateMutability": "nonpayable",
      "type": "function"
    },
    {
      "inputs": [
        {
          "internalType": "address",
          "name": "registry",
          "type": "address"
        },
        {
          "internalType": "address",
          "name": "maker",
          "type": "address"
        },
        {
          "internalType": "address",
          "name": "verifierTarget",
          "type": "address"
        },
        {
          "internalType": "bytes4",
          "name": "verifierSelector",
          "type": "bytes4"
        },
        {
          "internalType": "bytes",
          "name": "verifierExtradata",
          "type": "bytes"
        },
        {
          "internalType": "uint256",
          "name": "maximumFill",
          "type": "uint256"
        },
        {
          "internalType": "uint256",
          "name": "listingTime",
          "type": "uint256"
        },
        {
          "internalType": "uint256",
          "name": "expirationTime",
          "type": "uint256"
        },
        {
          "internalType": "uint256",
          "name": "salt",
          "type": "uint256"
        },
        {
          "internalType": "bool",
          "name": "orderbookInclusionDesired",
          "type": "bool"
        }
      ],
      "name": "approveOrder_",
      "outputs": [],
      "stateMutability": "nonpayable",
      "type": "function"
    },
    {
      "inputs": [
        {
          "internalType": "address",
          "name": "",
          "type": "address"
        },
        {
          "internalType": "bytes32",
          "name": "",
          "type": "bytes32"
        }
      ],
      "name": "approved",
      "outputs": [
        {
          "internalType": "bool",
          "name": "",
          "type": "bool"
        }
      ],
      "stateMutability": "view",
      "type": "function",
      "constant": true
    },
    {
      "inputs": [
        {
          "internalType": "address",
          "name": "",
          "type": "address"
        },
        {
          "internalType": "bytes32",
          "name": "",
          "type": "bytes32"
        }
      ],
      "name": "fills",
      "outputs": [
        {
          "internalType": "uint256",
          "name": "",
          "type": "uint256"
        }
      ],
      "stateMutability": "view",
      "type": "function",
      "constant": true
    },
    {
      "inputs": [
        {
          "internalType": "address",
          "name": "registry",
          "type": "address"
        },
        {
          "internalType": "address",
          "name": "maker",
          "type": "address"
        },
        {
          "internalType": "address",
          "name": "verifierTarget",
          "type": "address"
        },
        {
          "internalType": "bytes4",
          "name": "verifierSelector",
          "type": "bytes4"
        },
        {
          "internalType": "bytes",
          "name": "verifierExtradata",
          "type": "bytes"
        },
        {
          "internalType": "uint256",
          "name": "maximumFill",
          "type": "uint256"
        },
        {
          "internalType": "uint256",
          "name": "listingTime",
          "type": "uint256"
        },
        {
          "internalType": "uint256",
          "name": "expirationTime",
          "type": "uint256"
        },
        {
          "internalType": "uint256",
          "name": "salt",
          "type": "uint256"
        }
      ],
      "name": "hashOrder_",
      "outputs": [
        {
          "internalType": "bytes32",
          "name": "hash",
          "type": "bytes32"
        }
      ],
      "stateMutability": "pure",
      "type": "function",
      "constant": true
    },
    {
      "inputs": [
        {
          "internalType": "bytes32",
          "name": "orderHash",
          "type": "bytes32"
        }
      ],
      "name": "hashToSign_",
      "outputs": [
        {
          "internalType": "bytes32",
          "name": "hash",
          "type": "bytes32"
        }
      ],
      "stateMutability": "view",
      "type": "function",
      "constant": true
    },
    {
      "inputs": [],
      "name": "name",
      "outputs": [
        {
          "internalType": "string",
          "name": "",
          "type": "string"
        }
      ],
      "stateMutability": "view",
      "type": "function",
      "constant": true
    },
    {
      "inputs": [
        {
          "internalType": "address",
          "name": "",
          "type": "address"
        }
      ],
      "name": "registries",
      "outputs": [
        {
          "internalType": "bool",
          "name": "",
          "type": "bool"
        }
      ],
      "stateMutability": "view",
      "type": "function",
      "constant": true
    },
    {
      "inputs": [
        {
          "internalType": "bytes32",
          "name": "hash",
          "type": "bytes32"
        },
        {
          "internalType": "uint256",
          "name": "fill",
          "type": "uint256"
        }
      ],
      "name": "setOrderFill_",
      "outputs": [],
      "stateMutability": "nonpayable",
      "type": "function"
    },
    {
      "inputs": [
        {
          "internalType": "uint256[16]",
          "name": "uints",
          "type": "uint256[16]"
        },
        {
          "internalType": "bytes4[2]",
          "name": "verifierSelectors",
          "type": "bytes4[2]"
        },
        {
          "internalType": "bytes",
          "name": "firstExtradata",
          "type": "bytes"
        },
        {
          "internalType": "bytes",
          "name": "firstCalldata",
          "type": "bytes"
        },
        {
          "internalType": "bytes",
          "name": "secondExtradata",
          "type": "bytes"
        },
        {
          "internalType": "bytes",
          "name": "secondCalldata",
          "type": "bytes"
        },
        {
          "internalType": "uint8[2]",
          "name": "howToCalls",
          "type": "uint8[2]"
        },
        {
          "internalType": "bytes32",
          "name": "metadata",
          "type": "bytes32"
        },
        {
          "internalType": "bytes",
          "name": "signatures",
          "type": "bytes"
        }
      ],
      "name": "stateswap_",
      "outputs": [],
      "stateMutability": "payable",
      "type": "function",
      "payable": true
    },
    {
      "inputs": [
        {
          "internalType": "bytes32",
          "name": "hash",
          "type": "bytes32"
        },
        {
          "internalType": "address",
          "name": "maker",
          "type": "address"
        },
        {
          "internalType": "bytes",
          "name": "signature",
          "type": "bytes"
        }
      ],
      "name": "validateOrderAuthorization_",
      "outputs": [
        {
          "internalType": "bool",
          "name": "",
          "type": "bool"
        }
      ],
      "stateMutability": "view",
      "type": "function",
      "constant": true
    },
    {
      "inputs": [
        {
          "internalType": "address",
          "name": "registry",
          "type": "address"
        },
        {
          "internalType": "address",
          "name": "maker",
          "type": "address"
        },
        {
          "internalType": "address",
          "name": "verifierTarget",
          "type": "address"
        },
        {
          "internalType": "bytes4",
          "name": "verifierSelector",
          "type": "bytes4"
        },
        {
          "internalType": "bytes",
          "name": "verifierExtradata",
          "type": "bytes"
        },
        {
          "internalType": "uint256",
          "name": "maximumFill",
          "type": "uint256"
        },
        {
          "internalType": "uint256",
          "name": "listingTime",
          "type": "uint256"
        },
        {
          "internalType": "uint256",
          "name": "expirationTime",
          "type": "uint256"
        },
        {
          "internalType": "uint256",
          "name": "salt",
          "type": "uint256"
        }
      ],
      "name": "validateOrderParameters_",
      "outputs": [
        {
          "internalType": "bool",
          "name": "",
          "type": "bool"
        }
      ],
      "stateMutability": "view",
      "type": "function",
      "constant": true
    },
    {
      "inputs": [],
      "name": "version",
      "outputs": [
        {
          "internalType": "string",
          "name": "",
          "type": "string"
        }
      ],
      "stateMutability": "view",
      "type": "function",
      "constant": true
    }
  ],
  "bytecode": "0x6000805460ff1916905560c0604052601a60808190527f19457468657265756d205369676e6564204d6573736167653a0a00000000000060a09081526200004a916002919062000339565b503480156200005857600080fd5b5060405162002ad038038062002ad0833981810160405260608110156200007e57600080fd5b815160208301805160405192949293830192919084640100000000821115620000a657600080fd5b908301906020820185811115620000bc57600080fd5b8251866020820283011164010000000082111715620000da57600080fd5b82525081516020918201928201910280838360005b8381101562000109578181015183820152602001620000ef565b50505050905001604052602001805160405193929190846401000000008211156200013357600080fd5b9083019060208201858111156200014957600080fd5b82516401000000008111828201881017156200016457600080fd5b82525081516020918201929091019080838360005b838110156200019357818101518382015260200162000179565b50505050905090810190601f168015620001c15780820380516001836020036101000a031916815260200191505b5060c081016040908152601260808301908152715374617465737761702045786368616e676560701b60a084015282528051808201825260038152620312e360ec1b6020828101919091528301528101879052306060820152620002299350915050620002b0565b60015560005b825181101562000287576001600360008584815181106200024c57fe5b6020908102919091018101516001600160a01b03168252810191909152604001600020805460ff19169115159190911790556001016200022f565b50805115620002a7578051620002a590600290602084019062000339565b505b505050620003e5565b805180516020918201208183015180519083012060408085015160608087015183517f8b73c3c69bb8fe3d512ecc4cf759cc79239f7b179b0ffacaa9a75d522b39400f81890152808501969096529085019390935260808401526001600160a01b0390911660a0808401919091528151808403909101815260c090920190528051910120919050565b828054600181600116156101000203166002900490600052602060002090601f016020900481019282620003715760008555620003bc565b82601f106200038c57805160ff1916838001178555620003bc565b82800160010185558215620003bc579182015b82811115620003bc5782518255916020019190600101906200039f565b50620003ca929150620003ce565b5090565b5b80821115620003ca5760008155600101620003cf565b6126db80620003f56000396000f3fe6080604052600436106100d25760003560e01c8063995e81951161007f578063f861975b11610059578063f861975b14610701578063f9b0bc20146107c3578063fac7fc3814610885578063ffc2ab14146108be576100d2565b8063995e8195146105c8578063caed80df14610692578063d57ad588146106c5576100d2565b806314127f13116100b057806314127f131461023357806316ef6a601461026357806354fd4d50146105b3576100d2565b806306fdde03146100d75780630812226e1461016157806313b219e21461018d575b600080fd5b3480156100e357600080fd5b506100ec6108f7565b6040805160208082528351818301528351919283929083019185019080838360005b8381101561012657818101518382015260200161010e565b50505050905090810190601f1680156101535780820380516001836020036101000a031916815260200191505b509250505060405180910390f35b34801561016d57600080fd5b5061018b6004803603602081101561018457600080fd5b5035610930565b005b34801561019957600080fd5b5061021f600480360360608110156101b057600080fd5b8135916001600160a01b03602082013516918101906060810160408201356401000000008111156101e057600080fd5b8201836020820111156101f257600080fd5b8035906020019184600183028401116401000000008311171561021457600080fd5b50909250905061093c565b604080519115158252519081900360200190f35b34801561023f57600080fd5b5061018b6004803603604081101561025657600080fd5b5080359060200135610988565b61018b600480360361034081101561027a57600080fd5b8101908080610200019060108060200260405190810160405280929190826010602002808284376000920191909152505060408051808201825292959493818101939250906002908390839080828437600092019190915250919493926020810192503590506401000000008111156102f257600080fd5b82018360208201111561030457600080fd5b8035906020019184600183028401116401000000008311171561032657600080fd5b91908080601f016020809104026020016040519081016040528093929190818152602001838380828437600092019190915250929594936020810193503591505064010000000081111561037957600080fd5b82018360208201111561038b57600080fd5b803590602001918460018302840111640100000000831117156103ad57600080fd5b91908080601f016020809104026020016040519081016040528093929190818152602001838380828437600092019190915250929594936020810193503591505064010000000081111561040057600080fd5b82018360208201111561041257600080fd5b8035906020019184600183028401116401000000008311171561043457600080fd5b91908080601f016020809104026020016040519081016040528093929190818152602001838380828437600092019190915250929594936020810193503591505064010000000081111561048757600080fd5b82018360208201111561049957600080fd5b803590602001918460018302840111640100000000831117156104bb57600080fd5b91908080601f016020809104026020016040519081016040528093929190818152602001838380828437600092019190915250506040805180820182529396959481810194935091506002908390839080828437600092019190915250919483359490939092506040810191506020013564010000000081111561053e57600080fd5b82018360208201111561055057600080fd5b8035906020019184600183028401116401000000008311171561057257600080fd5b91908080601f016020809104026020016040519081016040528093929190818152602001838380828437600092019190915250929550610996945050505050565b3480156105bf57600080fd5b506100ec610c19565b3480156105d457600080fd5b5061018b60048036036101408110156105ec57600080fd5b6001600160a01b03823581169260208101358216926040820135909216916001600160e01b0319606083013516919081019060a08101608082013564010000000081111561063957600080fd5b82018360208201111561064b57600080fd5b8035906020019184600183028401116401000000008311171561066d57600080fd5b9193509150803590602081013590604081013590606081013590608001351515610c38565b34801561069e57600080fd5b5061021f600480360360208110156106b557600080fd5b50356001600160a01b0316610ceb565b3480156106d157600080fd5b506106ef600480360360208110156106e857600080fd5b5035610d00565b60408051918252519081900360200190f35b34801561070d57600080fd5b506106ef600480360361012081101561072557600080fd5b6001600160a01b03823581169260208101358216926040820135909216916001600160e01b0319606083013516919081019060a08101608082013564010000000081111561077257600080fd5b82018360208201111561078457600080fd5b803590602001918460018302840111640100000000831117156107a657600080fd5b919350915080359060208101359060408101359060600135610d11565b3480156107cf57600080fd5b5061021f60048036036101208110156107e757600080fd5b6001600160a01b03823581169260208101358216926040820135909216916001600160e01b0319606083013516919081019060a08101608082013564010000000081111561083457600080fd5b82018360208201111561084657600080fd5b8035906020019184600183028401116401000000008311171561086857600080fd5b919350915080359060208101359060408101359060600135610dc7565b34801561089157600080fd5b5061021f600480360360408110156108a857600080fd5b506001600160a01b038135169060200135610e92565b3480156108ca57600080fd5b506106ef600480360360408110156108e157600080fd5b506001600160a01b038135169060200135610eb2565b6040518060400160405280601281526020017f5374617465737761702045786368616e6765000000000000000000000000000081525081565b61093981610ecf565b50565b600061097f858585858080601f016020809104026020016040519081016040528093929190818152602001838380828437600092019190915250610f6592505050565b95945050505050565b610992828261133d565b5050565b610c0e6040518061012001604052808b6000601081106109b257fe5b60200201516001600160a01b031681526020018b6001601081106109d257fe5b60200201516001600160a01b031681526020018b6002601081106109f257fe5b60200201516001600160a01b031681526020018a600060028110610a1257fe5b60200201516001600160e01b03191681526020018981526020018b600360108110610a3957fe5b602002015181526020018b600460108110610a5057fe5b602002015181526020018b600560108110610a6757fe5b602002015181526020018b600660108110610a7e57fe5b602002015190526040805160608101909152808c600760200201516001600160a01b0316815260200186600060028110610ab457fe5b602002015160ff166001811115610ac757fe5b6001811115610ad257fe5b815260209081018a90526040805161012081019091526101008e01516001600160a01b031681529081018d600960200201516001600160a01b031681526020018d600a60108110610b1f57fe5b60200201516001600160a01b031681526020018c600160028110610b3f57fe5b60200201516001600160e01b03191681526020018981526020018d600b60108110610b6657fe5b602002015181526020018d600c60108110610b7d57fe5b602002015181526020018d600d60108110610b9457fe5b602002015181526020018d600e60108110610bab57fe5b602002015190526040805160608101909152808e600f60200201516001600160a01b0316815260200188600160028110610be157fe5b602002015160ff166001811115610bf457fe5b6001811115610bff57fe5b815260200189905285876113ea565b505050505050505050565b604051806040016040528060038152602001620312e360ec1b81525081565b610cde6040518061012001604052808d6001600160a01b031681526020018c6001600160a01b031681526020018b6001600160a01b031681526020018a6001600160e01b031916815260200189898080601f01602080910402602001604051908101604052809392919081815260200183838082843760009201919091525050509082525060208101889052604081018790526060810186905260800184905282611a42565b5050505050505050505050565b60036020526000908152604090205460ff1681565b6000610d0b82611bcf565b92915050565b6000610db86040518061012001604052808d6001600160a01b031681526020018c6001600160a01b031681526020018b6001600160a01b031681526020018a6001600160e01b031916815260200189898080601f016020809104026020016040519081016040528093929190818152602001838380828437600092019190915250505090825250602081018890526040810187905260608101869052608001849052611c0d565b9b9a5050505050505050505050565b6000610dd16124ae565b6040518061012001604052808d6001600160a01b031681526020018c6001600160a01b031681526020018b6001600160a01b031681526020018a6001600160e01b031916815260200189898080601f0160208091040260200160405190810160405280939291908181526020018383808284376000920191909152505050908252506020810188905260408101879052606081018690526080018490529050610e8281610e7d81611c0d565b611cf6565b9c9b505050505050505050505050565b600560209081526000928352604080842090915290825290205460ff1681565b600460209081526000928352604080842090915290825290205481565b33600090815260056020908152604080832084845290915290205460ff1615610f3f576040805162461bcd60e51b815260206004820152601f60248201527f4f726465722068617320616c7265616479206265656e20617070726f76656400604482015290519081900360640190fd5b33600090815260056020908152604080832093835292905220805460ff19166001179055565b6001600160a01b038216600090815260046020908152604080832086845290915281205415610f9657506001611336565b6001600160a01b038316331415610faf57506001611336565b6001600160a01b038316600090815260056020908152604080832087845290915290205460ff1615610fe357506001611336565b6000610fee85611bcf565b90506000610ffb85611d82565b9050801561110a5760408051630b135d3f60e11b808252600482018581526024830193845287516044840152875191936001600160a01b038a1693631626ba7e9388938b9390929091606490910190602085019080838360005b8381101561106d578181015183820152602001611055565b50505050905090810190601f16801561109a5780820380516001836020036101000a031916815260200191505b50935050505060206040518083038186803b1580156110b857600080fd5b505afa1580156110cc573d6000803e3d6000fd5b505050506040513d60208110156110e257600080fd5b50516001600160e01b03191614156110ff57600192505050611336565b600092505050611336565b600080600086806020019051606081101561112457600080fd5b50805160208201516040909201518951919550919350909150604110801561118657508660018851038151811061115757fe5b6020910101517fff0000000000000000000000000000000000000000000000000000000000000016600360f81b145b156112a157876001600160a01b0316600160028760405160200180838054600181600116156101000203166002900480156111f85780601f106111d65761010080835404028352918201916111f8565b820191906000526020600020905b8154815290600101906020018083116111e4575b505061199960f11b81526002808201939093526040805180830390940184526022820180825284516020958601206000909152604283018083525260ff8a1660628301526082820189905260a282018890525160c28083019550601f19820193509181900390910190855afa158015611275573d6000803e3d6000fd5b505050602060405103516001600160a01b0316141561129c57600195505050505050611336565b61132c565b876001600160a01b031660018685858560405160008152602001604052604051808581526020018460ff1681526020018381526020018281526020019450505050506020604051602081039080840390855afa158015611305573d6000803e3d6000fd5b505050602060405103516001600160a01b0316141561132c57600195505050505050611336565b6000955050505050505b9392505050565b3360009081526004602090815260408083208584529091529020548114156113965760405162461bcd60e51b81526004018080602001828103825260288152602001806125cf6028913960400191505060405180910390fd5b3360008181526004602090815260408083208684528252918290208490558151848152915185927f826cd05b52546b47590739469989cacd5336e0a9e6f9392de2dee5cfb19c8aab92908290030190a35050565b60005460ff1615611442576040805162461bcd60e51b815260206004820152601360248201527f5265656e7472616e637920646574656374656400000000000000000000000000604482015290519081900360640190fd5b6000805460ff1916600117815561145887611c0d565b90506114648782611cf6565b61149f5760405162461bcd60e51b81526004018080602001828103825260228152602001806126406022913960400191505060405180910390fd5b60006114aa86611c0d565b90506114b68682611cf6565b6114f15760405162461bcd60e51b81526004018080602001828103825260238152602001806126836023913960400191505060405180910390fd5b808214156115305760405162461bcd60e51b81526004018080602001828103825260228152602001806125f76022913960400191505060405180910390fd5b60608085806020019051604081101561154857600080fd5b810190808051604051939291908464010000000082111561156857600080fd5b90830190602082018581111561157d57600080fd5b825164010000000081118282018810171561159757600080fd5b82525081516020918201929091019080838360005b838110156115c45781810151838201526020016115ac565b50505050905090810190601f1680156115f15780820380516001836020036101000a031916815260200191505b506040526020018051604051939291908464010000000082111561161457600080fd5b90830190602082018581111561162957600080fd5b825164010000000081118282018810171561164357600080fd5b82525081516020918201929091019080838360005b83811015611670578181015183820152602001611658565b50505050905090810190601f16801561169d5780820380516001836020036101000a031916815260200191505b50604052505050915091506116b7848b6020015184610f65565b611708576040805162461bcd60e51b815260206004820181905260248201527f4669727374206f72646572206661696c656420617574686f72697a6174696f6e604482015290519081900360640190fd5b61171783896020015183610f65565b6117525760405162461bcd60e51b81526004018080602001828103825260218152602001806126626021913960400191505060405180910390fd5b505034156118065760208801516040516000916001600160a01b03169034908381818185875af1925050503d80600081146117a9576040519150601f19603f3d011682016040523d82523d6000602084013e6117ae565b606091505b5050905080611804576040805162461bcd60e51b815260206004820152601d60248201527f6e617469766520746f6b656e207472616e73666572206661696c65642e000000604482015290519081900360640190fd5b505b6118198860000151896020015189611d88565b61186a576040805162461bcd60e51b815260206004820152601160248201527f46697273742063616c6c206661696c6564000000000000000000000000000000604482015290519081900360640190fd5b61187d8660000151876020015187611d88565b6118ce576040805162461bcd60e51b815260206004820152601260248201527f5365636f6e642063616c6c206661696c65640000000000000000000000000000604482015290519081900360640190fd5b6020808901516001600160a01b039081166000908152600480845260408083208784528552808320548b86015190941683529084528082208583529093529182205490916119218b8b8b8b3334896120fc565b905060006119358a8a8e8e336000896120fc565b60208d01519091506001600160a01b0316331461197b5783821461197b576020808d01516001600160a01b03166000908152600482526040808220898352909252208290555b60208a01516001600160a01b031633146119be578281146119be576020808b01516001600160a01b03166000908152600482526040808220888352909252208190555b868a602001516001600160a01b03168d602001516001600160a01b03167fe8447df45ce371d4c2f6cfcb9342b06165f71b244e809b909977f0dab191a009898987876040518085815260200184815260200183815260200182815260200194505050505060405180910390a450506000805460ff1916905550505050505050505050565b60208201516001600160a01b03163314611a8d5760405162461bcd60e51b815260040180806020018281038252604a815260200180612554604a913960600191505060405180910390fd5b6000611a9883611c0d565b9050611aa381610ecf565b82602001516001600160a01b0316817fbace5d282ba59cba3de1ac539b0ed46ae5a3d8ad434a3ac9f07ce45d1661481885600001518660400151876060015188608001518960a001518a60c001518b60e001518c61010001518c604051808a6001600160a01b03168152602001896001600160a01b03168152602001886001600160e01b0319168152602001806020018781526020018681526020018581526020018481526020018315158152602001828103825288818151815260200191508051906020019080838360005b83811015611b88578181015183820152602001611b70565b50505050905090810190601f168015611bb55780820380516001836020036101000a031916815260200191505b509a505050505050505050505060405180910390a3505050565b6001546040805161190160f01b6020808301919091526022820193909352604280820194909452815180820390940184526062019052815191012090565b60007f66df80fc2295e43942147adb4a3f7f34fc978ff9dd5312435c67b3160aba2fee82600001518360200151846040015185606001518660800151805190602001208760a001518860c001518960e001518a6101000151604051602001808b81526020018a6001600160a01b03168152602001896001600160a01b03168152602001886001600160a01b03168152602001876001600160e01b03191681526020018681526020018581526020018481526020018381526020018281526020019a5050505050505050505050604051602081830303815290604052805190602001209050919050565b6000428360c001511180611d1c575060e083015115801590611d1c5750428360e0015111155b15611d2957506000610d0b565b60a08301516020808501516001600160a01b03166000908152600482526040808220868352909252205410611d6057506000610d0b565b611d6d8360400151611d82565b611d7957506000610d0b565b50600192915050565b3b151590565b6001600160a01b03831660009081526003602052604081205460ff16611dad57600080fd5b8151611db890611d82565b611e09576040805162461bcd60e51b815260206004820152601a60248201527f43616c6c2074617267657420646f6573206e6f74206578697374000000000000604482015290519081900360640190fd5b6000846001600160a01b031663c4552791856040518263ffffffff1660e01b815260040180826001600160a01b03168152602001915050602060405180830381600087803b158015611e5a57600080fd5b505af1158015611e6e573d6000803e3d6000fd5b505050506040513d6020811015611e8457600080fd5b505190506001600160a01b038116611ecd5760405162461bcd60e51b81526004018080602001828103825260278152602001806126196027913960400191505060405180910390fd5b846001600160a01b03166397204d8e6040518163ffffffff1660e01b8152600401602060405180830381600087803b158015611f0857600080fd5b505af1158015611f1c573d6000803e3d6000fd5b505050506040513d6020811015611f3257600080fd5b505160408051635c60da1b60e01b815290516001600160a01b0392831692841691635c60da1b916004808301926020929190829003018186803b158015611f7857600080fd5b505afa158015611f8c573d6000803e3d6000fd5b505050506040513d6020811015611fa257600080fd5b50516001600160a01b031614611fe95760405162461bcd60e51b815260040180806020018281038252603181526020018061259e6031913960400191505060405180910390fd5b6000819050806001600160a01b0316631b0f7ba98560000151866020015187604001516040518463ffffffff1660e01b815260040180846001600160a01b0316815260200183600181111561203a57fe5b815260200180602001828103825283818151815260200191508051906020019080838360005b83811015612078578181015183820152602001612060565b50505050905090810190601f1680156120a55780820380516001836020036101000a031916815260200191505b50945050505050602060405180830381600087803b1580156120c657600080fd5b505af11580156120da573d6000803e3d6000fd5b505050506040513d60208110156120f057600080fd5b50519695505050505050565b600061211a88604001516121158a8a8a8a8a8a8a612126565b61243a565b98975050505050505050565b60606121306124f9565b506040805160e08101825289516001600160a01b0390811682526020808c01518216818401528a5182169383019390935288518116606083015291880151821660808201528651821660a082015290851660c082015261218e612517565b60405180604001604052808a6020015160018111156121a957fe5b60018111156121b457fe5b8152602001886020015160018111156121c957fe5b60018111156121d457fe5b905290506121e0612535565b6040518060c001604052808781526020018c60a0015181526020018c60c0015181526020018c60e0015181526020018a60c0015181526020018681525090508a606001518b608001518484848e604001518d60400151604051602401808060200187600760200280838360005b8381101561226557818101518382015260200161224d565b5050505090500186600260200280838360005b83811015612290578181015183820152602001612278565b5050505090500185600660200280838360005b838110156122bb5781810151838201526020016122a3565b50505050905001806020018060200184810384528a818151815260200191508051906020019080838360005b838110156122ff5781810151838201526020016122e7565b50505050905090810190601f16801561232c5780820380516001836020036101000a031916815260200191505b50848103835286518152865160209182019188019080838360005b8381101561235f578181015183820152602001612347565b50505050905090810190601f16801561238c5780820380516001836020036101000a031916815260200191505b50848103825285518152855160209182019187019080838360005b838110156123bf5781810151838201526020016123a7565b50505050905090810190601f1680156123ec5780820380516001836020036101000a031916815260200191505b5060408051601f198184030181529190526020810180516001600160e01b03166001600160e01b0319909d169c909c17909b5250989c50505050505050505050505050979650505050505050565b60008060206040518181865160208801895afa9250805193505050806124a7576040805162461bcd60e51b815260206004820152601260248201527f5374617469632063616c6c206661696c65640000000000000000000000000000604482015290519081900360640190fd5b5092915050565b60408051610120810182526000808252602082018190529181018290526060808201839052608082015260a0810182905260c0810182905260e0810182905261010081019190915290565b6040518060e001604052806007906020820280368337509192915050565b60405180604001604052806002906020820280368337509192915050565b6040518060c00160405280600690602082028036833750919291505056fe53656e646572206973206e6f7420746865206d616b6572206f6620746865206f7264657220616e642074687573206e6f7420617574686f72697a656420746f20617070726f7665206974496e636f72726563742064656c65676174652070726f787920696d706c656d656e746174696f6e20666f72206d616b657246696c6c20697320616c72656164792073657420746f2074686520646573697265642076616c756553656c662d6d61746368696e67206f72646572732069732070726f6869626974656444656c65676174652070726f787920646f6573206e6f7420657869737420666f72206d616b65724669727374206f726465722068617320696e76616c696420706172616d65746572735365636f6e64206f72646572206661696c656420617574686f72697a6174696f6e5365636f6e64206f726465722068617320696e76616c696420706172616d6574657273a264697066735822122029cb3fecfcc40bef5b9c43290503115dc8538e7e427a9fe95104497c788c7c7064736f6c63430007050033",
  "immutableReferences": {},
  "source": "/*\r\n\r\n  << Stateswap Exchange >>\r\n\r\n*/\r\n\r\npragma solidity 0.7.5;\r\n\r\nimport \"./exchange/Exchange.sol\";\r\n\r\n/**\r\n * @title StateswapExchange\r\n * @author Stateswap Protocol Developers\r\n */\r\ncontract StateswapExchange is Exchange {\r\n    string public constant name = \"Stateswap Exchange\";\r\n\r\n    string public constant version = \"1.0\";\r\n\r\n    constructor(\r\n        uint256 chainId,\r\n        address[] memory registryAddrs,\r\n        bytes memory customPersonalSignPrefix\r\n    ) public {\r\n        DOMAIN_SEPARATOR = hash(\r\n            EIP712Domain({\r\n                name: name,\r\n                version: version,\r\n                chainId: chainId,\r\n                verifyingContract: address(this)\r\n            })\r\n        );\r\n        for (uint256 ind = 0; ind < registryAddrs.length; ind++) {\r\n            registries[registryAddrs[ind]] = true;\r\n        }\r\n        if (customPersonalSignPrefix.length > 0) {\r\n            personalSignPrefix = customPersonalSignPrefix;\r\n        }\r\n    }\r\n}\r\n",
  "sourcePath": "C:/Projects/stateswap/stateswap-contract/stateswap-v1/contracts/StateswapExchange.sol",
  "compiler": {
    "name": "solc",
    "version": "0.7.5+commit.eb77ed08.Emscripten.clang"
  },
  "schemaVersion": "3.3.1",
  "updatedAt": "2022-11-18T21:58:23.420Z",
  "networkType": "ethereum",
  "devdoc": {
    "author": "Stateswap Protocol Developers",
    "kind": "dev",
    "methods": {},
    "title": "StateswapExchange",
    "version": 1
  },
  "userdoc": {
    "kind": "user",
    "methods": {},
    "version": 1
  }
}