{
  "contractName": "StateswapRegistry",
  "abi": [
    {
      "inputs": [],
      "stateMutability": "nonpayable",
      "type": "constructor"
    },
    {
      "anonymous": false,
      "inputs": [
        {
          "indexed": true,
          "internalType": "address",
          "name": "previousOwner",
          "type": "address"
        },
        {
          "indexed": true,
          "internalType": "address",
          "name": "newOwner",
          "type": "address"
        }
      ],
      "name": "OwnershipTransferred",
      "type": "event"
    },
    {
      "inputs": [],
      "name": "DELAY_PERIOD",
      "outputs": [
        {
          "internalType": "uint256",
          "name": "",
          "type": "uint256"
        }
      ],
      "stateMutability": "view",
      "type": "function",
      "constant": true
    },
    {
      "inputs": [
        {
          "internalType": "address",
          "name": "",
          "type": "address"
        }
      ],
      "name": "contracts",
      "outputs": [
        {
          "internalType": "bool",
          "name": "",
          "type": "bool"
        }
      ],
      "stateMutability": "view",
      "type": "function",
      "constant": true
    },
    {
      "inputs": [],
      "name": "delegateProxyImplementation",
      "outputs": [
        {
          "internalType": "address",
          "name": "",
          "type": "address"
        }
      ],
      "stateMutability": "view",
      "type": "function",
      "constant": true
    },
    {
      "inputs": [
        {
          "internalType": "address",
          "name": "addr",
          "type": "address"
        }
      ],
      "name": "endGrantAuthentication",
      "outputs": [],
      "stateMutability": "nonpayable",
      "type": "function"
    },
    {
      "inputs": [],
      "name": "initialAddressSet",
      "outputs": [
        {
          "internalType": "bool",
          "name": "",
          "type": "bool"
        }
      ],
      "stateMutability": "view",
      "type": "function",
      "constant": true
    },
    {
      "inputs": [],
      "name": "name",
      "outputs": [
        {
          "internalType": "string",
          "name": "",
          "type": "string"
        }
      ],
      "stateMutability": "view",
      "type": "function",
      "constant": true
    },
    {
      "inputs": [],
      "name": "owner",
      "outputs": [
        {
          "internalType": "address",
          "name": "",
          "type": "address"
        }
      ],
      "stateMutability": "view",
      "type": "function",
      "constant": true
    },
    {
      "inputs": [
        {
          "internalType": "address",
          "name": "",
          "type": "address"
        }
      ],
      "name": "pending",
      "outputs": [
        {
          "internalType": "uint256",
          "name": "",
          "type": "uint256"
        }
      ],
      "stateMutability": "view",
      "type": "function",
      "constant": true
    },
    {
      "inputs": [
        {
          "internalType": "address",
          "name": "",
          "type": "address"
        }
      ],
      "name": "proxies",
      "outputs": [
        {
          "internalType": "contract OwnableDelegateProxy",
          "name": "",
          "type": "address"
        }
      ],
      "stateMutability": "view",
      "type": "function",
      "constant": true
    },
    {
      "inputs": [],
      "name": "registerProxy",
      "outputs": [
        {
          "internalType": "contract OwnableDelegateProxy",
          "name": "proxy",
          "type": "address"
        }
      ],
      "stateMutability": "nonpayable",
      "type": "function"
    },
    {
      "inputs": [
        {
          "internalType": "address",
          "name": "user",
          "type": "address"
        }
      ],
      "name": "registerProxyFor",
      "outputs": [
        {
          "internalType": "contract OwnableDelegateProxy",
          "name": "proxy",
          "type": "address"
        }
      ],
      "stateMutability": "nonpayable",
      "type": "function"
    },
    {
      "inputs": [],
      "name": "registerProxyOverride",
      "outputs": [
        {
          "internalType": "contract OwnableDelegateProxy",
          "name": "proxy",
          "type": "address"
        }
      ],
      "stateMutability": "nonpayable",
      "type": "function"
    },
    {
      "inputs": [],
      "name": "renounceOwnership",
      "outputs": [],
      "stateMutability": "nonpayable",
      "type": "function"
    },
    {
      "inputs": [
        {
          "internalType": "address",
          "name": "addr",
          "type": "address"
        }
      ],
      "name": "revokeAuthentication",
      "outputs": [],
      "stateMutability": "nonpayable",
      "type": "function"
    },
    {
      "inputs": [
        {
          "internalType": "address",
          "name": "addr",
          "type": "address"
        }
      ],
      "name": "startGrantAuthentication",
      "outputs": [],
      "stateMutability": "nonpayable",
      "type": "function"
    },
    {
      "inputs": [
        {
          "internalType": "address",
          "name": "from",
          "type": "address"
        },
        {
          "internalType": "address",
          "name": "to",
          "type": "address"
        }
      ],
      "name": "transferAccessTo",
      "outputs": [],
      "stateMutability": "nonpayable",
      "type": "function"
    },
    {
      "inputs": [
        {
          "internalType": "address",
          "name": "newOwner",
          "type": "address"
        }
      ],
      "name": "transferOwnership",
      "outputs": [],
      "stateMutability": "nonpayable",
      "type": "function"
    },
    {
      "inputs": [
        {
          "internalType": "address",
          "name": "authAddress",
          "type": "address"
        }
      ],
      "name": "grantInitialAuthentication",
      "outputs": [],
      "stateMutability": "nonpayable",
      "type": "function"
    }
  ],
  "bytecode": "0x6080604052621275006005556006805460ff1916905534801561002157600080fd5b50600061002c610192565b600080546001600160a01b0319166001600160a01b0383169081178255604051929350917f8be0079c531659141344cd1fd0a4f28419497f9722a3daafe3b4186f6b6457e0908290a350600060405161008490610196565b604051809103906000f0801580156100a0573d6000803e3d6000fd5b506040805163485cc95560e01b81523060048201819052602482015290519192506001600160a01b0383169163485cc9559160448082019260009290919082900301818387803b1580156100f357600080fd5b505af1158015610107573d6000803e3d6000fd5b505060408051634c93505f60e01b81526001600482015290516001600160a01b0385169350634c93505f9250602480830192600092919082900301818387803b15801561015357600080fd5b505af1158015610167573d6000803e3d6000fd5b5050600180546001600160a01b0319166001600160a01b039490941693909317909255506101a39050565b3390565b610b3b80611bc983390190565b611a17806101b26000396000f3fe60806040523480156200001157600080fd5b5060043610620001535760003560e01c80638da5cb5b11620000c3578063dcfa9222116200008d578063e71a02e1116200006f578063e71a02e114620003aa578063ef7f383414620003b4578063f2fde38b14620003dd5762000153565b8063dcfa9222146200036f578063ddd81f8214620003a05762000153565b80638da5cb5b146200030957806397204d8e1462000313578063c4552791146200031d578063d4e8e06314620003465762000153565b806353376d1f1162000123578063631d9e3f1162000105578063631d9e3f14620002cc57806369dc9ff314620002d6578063715018a614620002ff5762000153565b806353376d1f14620002685780635eebea2014620002915762000153565b8062686741146200015857806306fdde03146200019d5780631a86ac4f146200021f57806338b6e407146200023d575b600080fd5b62000181600480360360208110156200017057600080fd5b50356001600160a01b031662000406565b604080516001600160a01b039092168252519081900360200190f35b620001a7620005cb565b6040805160208082528351818301528351919283929083019185019080838360005b83811015620001e3578181015183820152602001620001c9565b50505050905090810190601f168015620002115780820380516001836020036101000a031916815260200191505b509250505060405180910390f35b62000229620005e8565b604080519115158252519081900360200190f35b62000266600480360360208110156200025557600080fd5b50356001600160a01b0316620005f1565b005b62000266600480360360208110156200028057600080fd5b50356001600160a01b031662000742565b620002ba60048036036020811015620002a957600080fd5b50356001600160a01b0316620007dc565b60408051918252519081900360200190f35b62000181620007ee565b6200022960048036036020811015620002ee57600080fd5b50356001600160a01b03166200093c565b6200026662000951565b6200018162000a14565b6200018162000a23565b62000181600480360360208110156200033557600080fd5b50356001600160a01b031662000a32565b62000266600480360360208110156200035e57600080fd5b50356001600160a01b031662000a4d565b62000266600480360360408110156200038757600080fd5b506001600160a01b038135811691602001351662000b5f565b6200018162000c52565b620002ba62000c64565b6200026660048036036020811015620003cc57600080fd5b50356001600160a01b031662000c6a565b6200026660048036036020811015620003f557600080fd5b50356001600160a01b031662000d5c565b6001600160a01b038181166000908152600260205260408120549091161562000476576040805162461bcd60e51b815260206004820152601860248201527f5573657220616c72656164792068617320612070726f78790000000000000000604482015290519081900360640190fd5b600154604080516001600160a01b0380861660248301523060448084019190915283518084039091018152606490920183526020820180517bffffffffffffffffffffffffffffffffffffffffffffffffffffffff1663485cc95560e01b179052915185939290921691620004eb9062000e7b565b80846001600160a01b03168152602001836001600160a01b0316815260200180602001828103825283818151815260200191508051906020019080838360005b83811015620005455781810151838201526020016200052b565b50505050905090810190601f168015620005735780820380516001836020036101000a031916815260200191505b50945050505050604051809103906000f08015801562000597573d6000803e3d6000fd5b506001600160a01b03928316600090815260026020526040902080546001600160a01b031916938216939093179092555090565b604051806060016040528060218152602001620019846021913981565b60065460ff1681565b620005fb62000e77565b6001600160a01b03166200060e62000a14565b6001600160a01b0316146200066a576040805162461bcd60e51b815260206004820181905260248201527f4f776e61626c653a2063616c6c6572206973206e6f7420746865206f776e6572604482015290519081900360640190fd5b6001600160a01b03811660009081526004602052604090205460ff16158015620006ab57506001600160a01b03811660009081526003602052604090205415155b8015620006d457506005546001600160a01b038216600090815260036020526040902054429101105b620007115760405162461bcd60e51b8152600401808060200182810382526046815260200180620018db6046913960600191505060405180910390fd5b6001600160a01b0316600090815260036020908152604080832083905560049091529020805460ff19166001179055565b6200074c62000e77565b6001600160a01b03166200075f62000a14565b6001600160a01b031614620007bb576040805162461bcd60e51b815260206004820181905260248201527f4f776e61626c653a2063616c6c6572206973206e6f7420746865206f776e6572604482015290519081900360640190fd5b6001600160a01b03166000908152600460205260409020805460ff19169055565b60036020526000908152604090205481565b6001546040805133602482018190523060448084019190915283518084039091018152606490920183526020820180517bffffffffffffffffffffffffffffffffffffffffffffffffffffffff1663485cc95560e01b17905291516000936001600160a01b03169190620008629062000e7b565b80846001600160a01b03168152602001836001600160a01b0316815260200180602001828103825283818151815260200191508051906020019080838360005b83811015620008bc578181015183820152602001620008a2565b50505050905090810190601f168015620008ea5780820380516001836020036101000a031916815260200191505b50945050505050604051809103906000f0801580156200090e573d6000803e3d6000fd5b5033600090815260026020526040902080546001600160a01b0319166001600160a01b038316179055919050565b60046020526000908152604090205460ff1681565b6200095b62000e77565b6001600160a01b03166200096e62000a14565b6001600160a01b031614620009ca576040805162461bcd60e51b815260206004820181905260248201527f4f776e61626c653a2063616c6c6572206973206e6f7420746865206f776e6572604482015290519081900360640190fd5b600080546040516001600160a01b03909116907f8be0079c531659141344cd1fd0a4f28419497f9722a3daafe3b4186f6b6457e0908390a3600080546001600160a01b0319169055565b6000546001600160a01b031690565b6001546001600160a01b031681565b6002602052600090815260409020546001600160a01b031681565b62000a5762000e77565b6001600160a01b031662000a6a62000a14565b6001600160a01b03161462000ac6576040805162461bcd60e51b815260206004820181905260248201527f4f776e61626c653a2063616c6c6572206973206e6f7420746865206f776e6572604482015290519081900360640190fd5b6001600160a01b03811660009081526004602052604090205460ff1615801562000b0657506001600160a01b038116600090815260036020526040902054155b62000b435760405162461bcd60e51b8152600401808060200182810382526033815260200180620019516033913960400191505060405180910390fd5b6001600160a01b03166000908152600360205260409020429055565b6001600160a01b038083166000908152600260205260409020541633811462000bba5760405162461bcd60e51b815260040180806020018281038252602e81526020018062001887602e913960400191505060405180910390fd5b6001600160a01b03828116600090815260026020526040902054161562000c135760405162461bcd60e51b8152600401808060200182810382526030815260200180620019216030913960400191505060405180910390fd5b6001600160a01b0392831660009081526002602052604080822080546001600160a01b0319908116909155938516825290208054919093169116179055565b600062000c5f3362000406565b905090565b60055481565b62000c7462000e77565b6001600160a01b031662000c8762000a14565b6001600160a01b03161462000ce3576040805162461bcd60e51b815260206004820181905260248201527f4f776e61626c653a2063616c6c6572206973206e6f7420746865206f776e6572604482015290519081900360640190fd5b60065460ff161562000d275760405162461bcd60e51b815260040180806020018281038252603d815260200180620019a5603d913960400191505060405180910390fd5b6006805460ff1990811660019081179092556001600160a01b0390921660009081526004602052604090208054909216179055565b62000d6662000e77565b6001600160a01b031662000d7962000a14565b6001600160a01b03161462000dd5576040805162461bcd60e51b815260206004820181905260248201527f4f776e61626c653a2063616c6c6572206973206e6f7420746865206f776e6572604482015290519081900360640190fd5b6001600160a01b03811662000e1c5760405162461bcd60e51b8152600401808060200182810382526026815260200180620018b56026913960400191505060405180910390fd5b600080546040516001600160a01b03808516939216917f8be0079c531659141344cd1fd0a4f28419497f9722a3daafe3b4186f6b6457e091a3600080546001600160a01b0319166001600160a01b0392909216919091179055565b3390565b6109fd8062000e8a8339019056fe608060405234801561001057600080fd5b506040516109fd3803806109fd8339818101604052606081101561003357600080fd5b8151602083015160408085018051915193959294830192918464010000000082111561005e57600080fd5b90830190602082018581111561007357600080fd5b825164010000000081118282018810171561008d57600080fd5b82525081516020918201929091019080838360005b838110156100ba5781810151838201526020016100a2565b50505050905090810190601f1680156100e75780820380516001836020036101000a031916815260200191505b506040525050506100fd836101f060201b60201c565b61010682610212565b6000826001600160a01b0316826040518082805190602001908083835b602083106101425780518252601f199092019160209182019101610123565b6001836020036101000a038019825116818451168082178552505050505050905001915050600060405180830381855af49150503d80600081146101a2576040519150601f19603f3d011682016040523d82523d6000602084013e6101a7565b606091505b50509050806101e75760405162461bcd60e51b815260040180806020018281038252602a8152602001806109d3602a913960400191505060405180910390fd5b505050506102a7565b600180546001600160a01b0319166001600160a01b0392909216919091179055565b6000546001600160a01b038281169116141561025f5760405162461bcd60e51b81526004018080602001828103825260268152602001806109ad6026913960400191505060405180910390fd5b600080546001600160a01b0319166001600160a01b038316908117825560405190917fbc7cd75a20ee27fd9adebab32041f755214dbc6bffa90cc0225b39da2e5c2d3b91a250565b6106f7806102b66000396000f3fe6080604052600436106100705760003560e01c80634f1ef2861161004e5780634f1ef286146101895780635c60da1b1461023f5780636fde820214610254578063f1739cae1461026957610070565b8063025313a2146100fc5780633659cfe61461012d5780634555d5c914610162575b600061007a61029c565b90506001600160a01b0381166100d7576040805162461bcd60e51b815260206004820152601d60248201527f50726f787920696d706c656d656e746174696f6e207265717569726564000000604482015290519081900360640190fd5b60405136600082376000803683855af43d806000843e8180156100f8578184f35b8184fd5b34801561010857600080fd5b506101116102ab565b604080516001600160a01b039092168252519081900360200190f35b34801561013957600080fd5b506101606004803603602081101561015057600080fd5b50356001600160a01b03166102ba565b005b34801561016e57600080fd5b5061017761031d565b60408051918252519081900360200190f35b6101606004803603604081101561019f57600080fd5b6001600160a01b0382351691908101906040810160208201356401000000008111156101ca57600080fd5b8201836020820111156101dc57600080fd5b803590602001918460018302840111640100000000831117156101fe57600080fd5b91908080601f016020809104026020016040519081016040528093929190818152602001838380828437600092019190915250929550610322945050505050565b34801561024b57600080fd5b5061011161029c565b34801561026057600080fd5b5061011161047e565b34801561027557600080fd5b506101606004803603602081101561028c57600080fd5b50356001600160a01b031661048d565b6000546001600160a01b031690565b60006102b561047e565b905090565b6102c26102ab565b6001600160a01b0316336001600160a01b0316146103115760405162461bcd60e51b81526004018080602001828103825260298152602001806106996029913960400191505060405180910390fd5b61031a8161057d565b50565b600290565b61032a6102ab565b6001600160a01b0316336001600160a01b0316146103795760405162461bcd60e51b81526004018080602001828103825260298152602001806106996029913960400191505060405180910390fd5b610382826102ba565b6000306001600160a01b0316826040518082805190602001908083835b602083106103be5780518252601f19909201916020918201910161039f565b6001836020036101000a038019825116818451168082178552505050505050905001915050600060405180830381855af49150503d806000811461041e576040519150601f19603f3d011682016040523d82523d6000602084013e610423565b606091505b5050905080610479576040805162461bcd60e51b815260206004820152601f60248201527f43616c6c206661696c65642061667465722070726f7879207570677261646500604482015290519081900360640190fd5b505050565b6001546001600160a01b031690565b6104956102ab565b6001600160a01b0316336001600160a01b0316146104e45760405162461bcd60e51b81526004018080602001828103825260298152602001806106996029913960400191505060405180910390fd5b6001600160a01b0381166105295760405162461bcd60e51b81526004018080602001828103825260248152602001806106756024913960400191505060405180910390fd5b7f5a3e66efaa1e445ebd894728a69d6959842ea1e97bd79b892797106e270efcd96105526102ab565b604080516001600160a01b03928316815291841660208301528051918290030190a161031a8161061f565b6000546001600160a01b03828116911614156105ca5760405162461bcd60e51b815260040180806020018281038252602681526020018061064f6026913960400191505060405180910390fd5b6000805473ffffffffffffffffffffffffffffffffffffffff19166001600160a01b038316908117825560405190917fbc7cd75a20ee27fd9adebab32041f755214dbc6bffa90cc0225b39da2e5c2d3b91a250565b6001805473ffffffffffffffffffffffffffffffffffffffff19166001600160a01b039290921691909117905556fe50726f787920616c72656164792075736573207468697320696d706c656d656e746174696f6e4e6577206f776e65722063616e6e6f7420626520746865206e756c6c20616464726573734f6e6c79207468652070726f7879206f776e65722063616e2063616c6c2074686973206d6574686f64a264697066735822122072b238c788b618acd72d610e74486af402ef4ece61f01585adf6e432f6c8ddee64736f6c6343000705003350726f787920616c72656164792075736573207468697320696d706c656d656e746174696f6e4f776e61626c6544656c656761746550726f7879206661696c656420696d706c656d656e746174696f6e50726f7879207472616e736665722063616e206f6e6c792062652063616c6c6564206279207468652070726f78794f776e61626c653a206e6577206f776e657220697320746865207a65726f2061646472657373436f6e7472616374206973206e6f206c6f6e6765722070656e64696e67206f722068617320616c7265616479206265656e20617070726f76656420627920726567697374727950726f7879207472616e7366657220686173206578697374696e672070726f78792061732064657374696e6174696f6e436f6e747261637420697320616c726561647920616c6c6f77656420696e2072656769737472792c206f722070656e64696e675374617465737761702050726f746f636f6c2050726f78792052656769737472795374617465737761702050726f746f636f6c2050726f787920526567697374727920696e697469616c206164647265737320616c726561647920736574a26469706673582212201ee055907531bbac1953240253231be4a153c613dd1a728b15ea24e25527e3f864736f6c6343000705003360806040526001805460ff60a01b1916905534801561001d57600080fd5b50610b0e8061002d6000396000f3fe6080604052600436106100965760003560e01c80634f8632ba116100695780636fde82021161004e5780636fde8202146103275780637b1039991461033c5780638f4ffcb11461035157610096565b80634f8632ba146102e157806363d256ce1461031257610096565b80631b0f7ba9146100ce5780633f801f91146101ad578063485cc9551461027a5780634c93505f146102b5575b60408051348152905133917fa419615bc8fda4c87663805ee2a3597a6d71c1d476911d9892f340d965bc7bf1919081900360200190a2005b3480156100da57600080fd5b50610199600480360360608110156100f157600080fd5b6001600160a01b038235169160ff6020820135169181019060608101604082013564010000000081111561012457600080fd5b82018360208201111561013657600080fd5b8035906020019184600183028401116401000000008311171561015857600080fd5b91908080601f016020809104026020016040519081016040528093929190818152602001838380828437600092019190915250929550610423945050505050565b604080519115158252519081900360200190f35b3480156101b957600080fd5b50610278600480360360608110156101d057600080fd5b6001600160a01b038235169160ff6020820135169181019060608101604082013564010000000081111561020357600080fd5b82018360208201111561021557600080fd5b8035906020019184600183028401116401000000008311171561023757600080fd5b91908080601f016020809104026020016040519081016040528093929190818152602001838380828437600092019190915250929550610686945050505050565b005b34801561028657600080fd5b506102786004803603604081101561029d57600080fd5b506001600160a01b03813581169160200135166106e7565b3480156102c157600080fd5b50610278600480360360208110156102d857600080fd5b50351515610789565b3480156102ed57600080fd5b506102f6610825565b604080516001600160a01b039092168252519081900360200190f35b34801561031e57600080fd5b50610199610834565b34801561033357600080fd5b506102f6610844565b34801561034857600080fd5b506102f6610853565b34801561035d57600080fd5b506102786004803603608081101561037457600080fd5b6001600160a01b0382358116926020810135926040820135909216918101906080810160608201356401000000008111156103ae57600080fd5b8201836020820111156103c057600080fd5b803590602001918460018302840111640100000000831117156103e257600080fd5b91908080601f016020809104026020016040519081016040528093929190818152602001838380828437600092019190915250929550610862945050505050565b6002546000906001600160a01b03163314806104c75750600354600160a01b900460ff161580156104c75750600354604080516369dc9ff360e01b815233600482015290516001600160a01b03909216916369dc9ff391602480820192602092909190829003018186803b15801561049a57600080fd5b505afa1580156104ae573d6000803e3d6000fd5b505050506040513d60208110156104c457600080fd5b50515b6105025760405162461bcd60e51b815260040180806020018281038252608a815260200180610a1c608a913960a00191505060405180910390fd5b6060600084600181111561051257fe5b14156105c457846001600160a01b0316836040518082805190602001908083835b602083106105525780518252601f199092019160209182019101610533565b6001836020036101000a0380198251168184511680821785525050505050509050019150506000604051808303816000865af19150503d80600081146105b4576040519150601f19603f3d011682016040523d82523d6000602084013e6105b9565b606091505b50909250905061067e565b60018460018111156105d257fe5b141561067e57846001600160a01b0316836040518082805190602001908083835b602083106106125780518252601f1990920191602091820191016105f3565b6001836020036101000a038019825116818451168082178552505050505050905001915050600060405180830381855af49150503d8060008114610672576040519150601f19603f3d011682016040523d82523d6000602084013e610677565b606091505b5090925090505b509392505050565b610691838383610423565b6106e2576040805162461bcd60e51b815260206004820152601660248201527f50726f787920617373657274696f6e206661696c656400000000000000000000604482015290519081900360640190fd5b505050565b600154600160a01b900460ff16156107305760405162461bcd60e51b81526004018080602001828103825260278152602001806109f56027913960400191505060405180910390fd5b6001805460ff60a01b1916600160a01b179055600280546001600160a01b039384167fffffffffffffffffffffffff00000000000000000000000000000000000000009182161790915560038054929093169116179055565b6002546001600160a01b031633146107d25760405162461bcd60e51b8152600401808060200182810382526033815260200180610aa66033913960400191505060405180910390fd5b60038054821515600160a01b810260ff60a01b199092169190911790915560408051918252517f2165014523a6f4135deffed62d70149aad59b64de5aac51e3abbcbe2a83e2f7e9181900360200190a150565b6002546001600160a01b031681565b600354600160a01b900460ff1681565b6001546001600160a01b031690565b6003546001600160a01b031681565b604080516323b872dd60e01b81526001600160a01b03868116600483015230602483015260448201869052915184928316916323b872dd9160648083019260209291908290030181600087803b1580156108bb57600080fd5b505af11580156108cf573d6000803e3d6000fd5b505050506040513d60208110156108e557600080fd5b5051610938576040805162461bcd60e51b815260206004820152601b60248201527f455243323020746f6b656e207472616e73666572206661696c65640000000000604482015290519081900360640190fd5b826001600160a01b0316856001600160a01b03167fd65b48fd35864b3528d38e44760be5553248f89bf3ff6b06cca57817cc2650bf86856040518083815260200180602001828103825283818151815260200191508051906020019080838360005b838110156109b257818101518382015260200161099a565b50505050905090810190601f1680156109df5780820380516001836020036101000a031916815260200191505b50935050505060405180910390a3505050505056fe41757468656e746963617465642070726f787920616c726561647920696e697469616c697a656441757468656e746963617465642070726f78792063616e206f6e6c792062652063616c6c65642062792069747320757365722c206f72206279206120636f6e747261637420617574686f72697a656420627920746865207265676973747279206173206c6f6e6720617320746865207573657220686173206e6f74207265766f6b65642061636365737341757468656e746963617465642070726f78792063616e206f6e6c79206265207265766f6b6564206279206974732075736572a26469706673582212208b6a534fd2a5bdadef0195700915994c47937fd4aad11a8d093fb288b90f172464736f6c63430007050033",
  "immutableReferences": {},
  "source": "/*\r\n\r\n  << Stateswap Proxy Registry >>\r\n\r\n*/\r\n\r\npragma solidity 0.7.5;\r\n\r\nimport \"./registry/ProxyRegistry.sol\";\r\nimport \"./registry/AuthenticatedProxy.sol\";\r\n\r\n/**\r\n * @title StateswapRegistry\r\n * @author Stateswap Protocol Developers\r\n */\r\ncontract StateswapRegistry is ProxyRegistry {\r\n\r\n    string public constant name = \"Stateswap Protocol Proxy Registry\";\r\n\r\n    /* Whether the initial auth address has been set. */\r\n    bool public initialAddressSet = false;\r\n\r\n    constructor ()\r\n        public\r\n    {   \r\n        AuthenticatedProxy impl = new AuthenticatedProxy();\r\n        impl.initialize(address(this), this);\r\n        impl.setRevoke(true);\r\n        delegateProxyImplementation = address(impl);\r\n    }   \r\n\r\n    /** \r\n     * Grant authentication to the initial Exchange protocol contract\r\n     *\r\n     * @dev No delay, can only be called once - after that the standard registry process with a delay must be used\r\n     * @param authAddress Address of the contract to grant authentication\r\n     */\r\n    function grantInitialAuthentication (address authAddress)\r\n        onlyOwner\r\n        public\r\n    {   \r\n        require(!initialAddressSet, \"Stateswap Protocol Proxy Registry initial address already set\");\r\n        initialAddressSet = true;\r\n        contracts[authAddress] = true;\r\n    }   \r\n\r\n}\r\n",
  "sourcePath": "C:/Projects/stateswap/stateswap-contract/stateswap-v1/contracts/StateswapRegistry.sol",
  "compiler": {
    "name": "solc",
    "version": "0.7.5+commit.eb77ed08.Emscripten.clang"
  },
  "schemaVersion": "3.3.1",
  "updatedAt": "2022-11-18T21:58:23.417Z",
  "networkType": "ethereum",
  "devdoc": {
    "author": "Stateswap Protocol Developers",
    "kind": "dev",
    "methods": {
      "endGrantAuthentication(address)": {
        "details": "ProxyRegistry owner only",
        "params": {
          "addr": "Address to which to grant permissions"
        }
      },
      "grantInitialAuthentication(address)": {
        "details": "No delay, can only be called once - after that the standard registry process with a delay must be used",
        "params": {
          "authAddress": "Address of the contract to grant authentication"
        }
      },
      "owner()": {
        "details": "Returns the address of the current owner."
      },
      "registerProxy()": {
        "details": "Must be called by the user which the proxy is for, creates a new AuthenticatedProxy",
        "returns": {
          "proxy": "New AuthenticatedProxy contract"
        }
      },
      "registerProxyFor(address)": {
        "details": "Can be called by any user",
        "returns": {
          "proxy": "New AuthenticatedProxy contract"
        }
      },
      "registerProxyOverride()": {
        "details": "Must be called by the user which the proxy is for, creates a new AuthenticatedProxy",
        "returns": {
          "proxy": "New AuthenticatedProxy contract"
        }
      },
      "renounceOwnership()": {
        "details": "Leaves the contract without owner. It will not be possible to call `onlyOwner` functions anymore. Can only be called by the current owner. NOTE: Renouncing ownership will leave the contract without an owner, thereby removing any functionality that is only available to the owner."
      },
      "revokeAuthentication(address)": {
        "details": "ProxyRegistry owner only",
        "params": {
          "addr": "Address of which to revoke permissions"
        }
      },
      "startGrantAuthentication(address)": {
        "details": "ProxyRegistry owner only",
        "params": {
          "addr": "Address to which to grant permissions"
        }
      },
      "transferOwnership(address)": {
        "details": "Transfers ownership of the contract to a new account (`newOwner`). Can only be called by the current owner."
      }
    },
    "title": "StateswapRegistry",
    "version": 1
  },
  "userdoc": {
    "kind": "user",
    "methods": {
      "endGrantAuthentication(address)": {
        "notice": "End the process to enable access for specified contract after delay period has passed."
      },
      "grantInitialAuthentication(address)": {
        "notice": "Grant authentication to the initial Exchange protocol contract"
      },
      "registerProxy()": {
        "notice": "Register a proxy contract with this registry"
      },
      "registerProxyFor(address)": {
        "notice": "Register a proxy contract with this registry"
      },
      "registerProxyOverride()": {
        "notice": "Register a proxy contract with this registry, overriding any existing proxy"
      },
      "revokeAuthentication(address)": {
        "notice": "Revoke access for specified contract. Can be done instantly."
      },
      "startGrantAuthentication(address)": {
        "notice": "Start the process to enable access for specified contract. Subject to delay period."
      },
      "transferAccessTo(address,address)": {
        "notice": "Transfer access"
      }
    },
    "version": 1
  }
}